{
  "_format": "hh-sol-artifact-1",
  "contractName": "ButterFlyCA",
  "sourceName": "contracts/Token.sol",
  "abi": [
    {
      "inputs": [],
      "stateMutability": "nonpayable",
      "type": "constructor"
    },
    {
      "anonymous": false,
      "inputs": [
        {
          "indexed": true,
          "internalType": "address",
          "name": "AMMPair",
          "type": "address"
        },
        {
          "indexed": false,
          "internalType": "bool",
          "name": "isPair",
          "type": "bool"
        }
      ],
      "name": "AMMPairsUpdated",
      "type": "event"
    },
    {
      "anonymous": false,
      "inputs": [
        {
          "indexed": true,
          "internalType": "address",
          "name": "owner",
          "type": "address"
        },
        {
          "indexed": true,
          "internalType": "address",
          "name": "spender",
          "type": "address"
        },
        {
          "indexed": false,
          "internalType": "uint256",
          "name": "value",
          "type": "uint256"
        }
      ],
      "name": "Approval",
      "type": "event"
    },
    {
      "anonymous": false,
      "inputs": [
        {
          "indexed": true,
          "internalType": "address",
          "name": "account",
          "type": "address"
        },
        {
          "indexed": false,
          "internalType": "bool",
          "name": "isExcluded",
          "type": "bool"
        }
      ],
      "name": "ExcludeFromFees",
      "type": "event"
    },
    {
      "anonymous": false,
      "inputs": [
        {
          "indexed": true,
          "internalType": "address",
          "name": "account",
          "type": "address"
        },
        {
          "indexed": false,
          "internalType": "bool",
          "name": "isExcluded",
          "type": "bool"
        }
      ],
      "name": "ExcludeFromLimits",
      "type": "event"
    },
    {
      "anonymous": false,
      "inputs": [
        {
          "indexed": false,
          "internalType": "uint256",
          "name": "maxBuyAmount",
          "type": "uint256"
        }
      ],
      "name": "MaxBuyAmountUpdated",
      "type": "event"
    },
    {
      "anonymous": false,
      "inputs": [
        {
          "indexed": false,
          "internalType": "uint256",
          "name": "maxWalletAmount",
          "type": "uint256"
        }
      ],
      "name": "MaxWalletAmountUpdated",
      "type": "event"
    },
    {
      "anonymous": false,
      "inputs": [
        {
          "indexed": true,
          "internalType": "address",
          "name": "previousOwner",
          "type": "address"
        },
        {
          "indexed": true,
          "internalType": "address",
          "name": "newOwner",
          "type": "address"
        }
      ],
      "name": "OwnershipTransferStarted",
      "type": "event"
    },
    {
      "anonymous": false,
      "inputs": [
        {
          "indexed": true,
          "internalType": "address",
          "name": "previousOwner",
          "type": "address"
        },
        {
          "indexed": true,
          "internalType": "address",
          "name": "newOwner",
          "type": "address"
        }
      ],
      "name": "OwnershipTransferred",
      "type": "event"
    },
    {
      "anonymous": false,
      "inputs": [
        {
          "indexed": true,
          "internalType": "address",
          "name": "routerV2",
          "type": "address"
        }
      ],
      "name": "RouterV2Updated",
      "type": "event"
    },
    {
      "anonymous": false,
      "inputs": [
        {
          "indexed": false,
          "internalType": "uint16",
          "name": "swapThresholdRatio",
          "type": "uint16"
        }
      ],
      "name": "SwapThresholdUpdated",
      "type": "event"
    },
    {
      "anonymous": false,
      "inputs": [
        {
          "indexed": true,
          "internalType": "address",
          "name": "from",
          "type": "address"
        },
        {
          "indexed": true,
          "internalType": "address",
          "name": "to",
          "type": "address"
        },
        {
          "indexed": false,
          "internalType": "uint256",
          "name": "value",
          "type": "uint256"
        }
      ],
      "name": "Transfer",
      "type": "event"
    },
    {
      "anonymous": false,
      "inputs": [
        {
          "indexed": false,
          "internalType": "address",
          "name": "taxwalletAddress",
          "type": "address"
        }
      ],
      "name": "taxwalletAddressUpdated",
      "type": "event"
    },
    {
      "anonymous": false,
      "inputs": [
        {
          "indexed": false,
          "internalType": "address",
          "name": "recipient",
          "type": "address"
        },
        {
          "indexed": false,
          "internalType": "uint256",
          "name": "amount",
          "type": "uint256"
        }
      ],
      "name": "taxwalletFeeSent",
      "type": "event"
    },
    {
      "anonymous": false,
      "inputs": [
        {
          "indexed": false,
          "internalType": "uint16",
          "name": "buyFee",
          "type": "uint16"
        },
        {
          "indexed": false,
          "internalType": "uint16",
          "name": "sellFee",
          "type": "uint16"
        },
        {
          "indexed": false,
          "internalType": "uint16",
          "name": "transferFee",
          "type": "uint16"
        }
      ],
      "name": "taxwalletFeesUpdated",
      "type": "event"
    },
    {
      "inputs": [
        {
          "internalType": "address",
          "name": "",
          "type": "address"
        }
      ],
      "name": "AMMPairs",
      "outputs": [
        {
          "internalType": "bool",
          "name": "",
          "type": "bool"
        }
      ],
      "stateMutability": "view",
      "type": "function"
    },
    {
      "inputs": [],
      "name": "acceptOwnership",
      "outputs": [],
      "stateMutability": "nonpayable",
      "type": "function"
    },
    {
      "inputs": [
        {
          "internalType": "address",
          "name": "owner",
          "type": "address"
        },
        {
          "internalType": "address",
          "name": "spender",
          "type": "address"
        }
      ],
      "name": "allowance",
      "outputs": [
        {
          "internalType": "uint256",
          "name": "",
          "type": "uint256"
        }
      ],
      "stateMutability": "view",
      "type": "function"
    },
    {
      "inputs": [
        {
          "internalType": "address",
          "name": "spender",
          "type": "address"
        },
        {
          "internalType": "uint256",
          "name": "amount",
          "type": "uint256"
        }
      ],
      "name": "approve",
      "outputs": [
        {
          "internalType": "bool",
          "name": "",
          "type": "bool"
        }
      ],
      "stateMutability": "nonpayable",
      "type": "function"
    },
    {
      "inputs": [
        {
          "internalType": "address",
          "name": "account",
          "type": "address"
        }
      ],
      "name": "balanceOf",
      "outputs": [
        {
          "internalType": "uint256",
          "name": "",
          "type": "uint256"
        }
      ],
      "stateMutability": "view",
      "type": "function"
    },
    {
      "inputs": [
        {
          "internalType": "uint256",
          "name": "amount",
          "type": "uint256"
        }
      ],
      "name": "burn",
      "outputs": [],
      "stateMutability": "nonpayable",
      "type": "function"
    },
    {
      "inputs": [
        {
          "internalType": "address",
          "name": "account",
          "type": "address"
        },
        {
          "internalType": "uint256",
          "name": "amount",
          "type": "uint256"
        }
      ],
      "name": "burnFrom",
      "outputs": [],
      "stateMutability": "nonpayable",
      "type": "function"
    },
    {
      "inputs": [],
      "name": "decimals",
      "outputs": [
        {
          "internalType": "uint8",
          "name": "",
          "type": "uint8"
        }
      ],
      "stateMutability": "pure",
      "type": "function"
    },
    {
      "inputs": [
        {
          "internalType": "address",
          "name": "spender",
          "type": "address"
        },
        {
          "internalType": "uint256",
          "name": "subtractedValue",
          "type": "uint256"
        }
      ],
      "name": "decreaseAllowance",
      "outputs": [
        {
          "internalType": "bool",
          "name": "",
          "type": "bool"
        }
      ],
      "stateMutability": "nonpayable",
      "type": "function"
    },
    {
      "inputs": [
        {
          "internalType": "address",
          "name": "account",
          "type": "address"
        },
        {
          "internalType": "bool",
          "name": "isExcluded",
          "type": "bool"
        }
      ],
      "name": "excludeFromFees",
      "outputs": [],
      "stateMutability": "nonpayable",
      "type": "function"
    },
    {
      "inputs": [
        {
          "internalType": "address",
          "name": "account",
          "type": "address"
        },
        {
          "internalType": "bool",
          "name": "isExcluded",
          "type": "bool"
        }
      ],
      "name": "excludeFromLimits",
      "outputs": [],
      "stateMutability": "nonpayable",
      "type": "function"
    },
    {
      "inputs": [],
      "name": "getAllPending",
      "outputs": [
        {
          "internalType": "uint256",
          "name": "",
          "type": "uint256"
        }
      ],
      "stateMutability": "view",
      "type": "function"
    },
    {
      "inputs": [],
      "name": "getSwapThresholdAmount",
      "outputs": [
        {
          "internalType": "uint256",
          "name": "",
          "type": "uint256"
        }
      ],
      "stateMutability": "view",
      "type": "function"
    },
    {
      "inputs": [
        {
          "internalType": "address",
          "name": "spender",
          "type": "address"
        },
        {
          "internalType": "uint256",
          "name": "addedValue",
          "type": "uint256"
        }
      ],
      "name": "increaseAllowance",
      "outputs": [
        {
          "internalType": "bool",
          "name": "",
          "type": "bool"
        }
      ],
      "stateMutability": "nonpayable",
      "type": "function"
    },
    {
      "inputs": [
        {
          "internalType": "address",
          "name": "",
          "type": "address"
        }
      ],
      "name": "isExcludedFromFees",
      "outputs": [
        {
          "internalType": "bool",
          "name": "",
          "type": "bool"
        }
      ],
      "stateMutability": "view",
      "type": "function"
    },
    {
      "inputs": [
        {
          "internalType": "address",
          "name": "",
          "type": "address"
        }
      ],
      "name": "isExcludedFromLimits",
      "outputs": [
        {
          "internalType": "bool",
          "name": "",
          "type": "bool"
        }
      ],
      "stateMutability": "view",
      "type": "function"
    },
    {
      "inputs": [],
      "name": "maxBuyAmount",
      "outputs": [
        {
          "internalType": "uint256",
          "name": "",
          "type": "uint256"
        }
      ],
      "stateMutability": "view",
      "type": "function"
    },
    {
      "inputs": [],
      "name": "maxWalletAmount",
      "outputs": [
        {
          "internalType": "uint256",
          "name": "",
          "type": "uint256"
        }
      ],
      "stateMutability": "view",
      "type": "function"
    },
    {
      "inputs": [],
      "name": "name",
      "outputs": [
        {
          "internalType": "string",
          "name": "",
          "type": "string"
        }
      ],
      "stateMutability": "view",
      "type": "function"
    },
    {
      "inputs": [],
      "name": "owner",
      "outputs": [
        {
          "internalType": "address",
          "name": "",
          "type": "address"
        }
      ],
      "stateMutability": "view",
      "type": "function"
    },
    {
      "inputs": [],
      "name": "pairV2",
      "outputs": [
        {
          "internalType": "address",
          "name": "",
          "type": "address"
        }
      ],
      "stateMutability": "view",
      "type": "function"
    },
    {
      "inputs": [],
      "name": "pendingOwner",
      "outputs": [
        {
          "internalType": "address",
          "name": "",
          "type": "address"
        }
      ],
      "stateMutability": "view",
      "type": "function"
    },
    {
      "inputs": [],
      "name": "renounceOwnership",
      "outputs": [],
      "stateMutability": "nonpayable",
      "type": "function"
    },
    {
      "inputs": [],
      "name": "routerV2",
      "outputs": [
        {
          "internalType": "contract IUniswapV2Router02",
          "name": "",
          "type": "address"
        }
      ],
      "stateMutability": "view",
      "type": "function"
    },
    {
      "inputs": [
        {
          "internalType": "address",
          "name": "pair",
          "type": "address"
        },
        {
          "internalType": "bool",
          "name": "isPair",
          "type": "bool"
        }
      ],
      "name": "setAMMPair",
      "outputs": [],
      "stateMutability": "nonpayable",
      "type": "function"
    },
    {
      "inputs": [],
      "name": "swapThresholdRatio",
      "outputs": [
        {
          "internalType": "uint16",
          "name": "",
          "type": "uint16"
        }
      ],
      "stateMutability": "view",
      "type": "function"
    },
    {
      "inputs": [],
      "name": "symbol",
      "outputs": [
        {
          "internalType": "string",
          "name": "",
          "type": "string"
        }
      ],
      "stateMutability": "view",
      "type": "function"
    },
    {
      "inputs": [],
      "name": "taxwalletAddress",
      "outputs": [
        {
          "internalType": "address",
          "name": "",
          "type": "address"
        }
      ],
      "stateMutability": "view",
      "type": "function"
    },
    {
      "inputs": [
        {
          "internalType": "address",
          "name": "_newAddress",
          "type": "address"
        }
      ],
      "name": "taxwalletAddressSetup",
      "outputs": [],
      "stateMutability": "nonpayable",
      "type": "function"
    },
    {
      "inputs": [
        {
          "internalType": "uint256",
          "name": "",
          "type": "uint256"
        }
      ],
      "name": "taxwalletFees",
      "outputs": [
        {
          "internalType": "uint16",
          "name": "",
          "type": "uint16"
        }
      ],
      "stateMutability": "view",
      "type": "function"
    },
    {
      "inputs": [
        {
          "internalType": "uint16",
          "name": "_buyFee",
          "type": "uint16"
        },
        {
          "internalType": "uint16",
          "name": "_sellFee",
          "type": "uint16"
        },
        {
          "internalType": "uint16",
          "name": "_transferFee",
          "type": "uint16"
        }
      ],
      "name": "taxwalletFeesSetup",
      "outputs": [],
      "stateMutability": "nonpayable",
      "type": "function"
    },
    {
      "inputs": [
        {
          "internalType": "uint256",
          "name": "",
          "type": "uint256"
        }
      ],
      "name": "totalFees",
      "outputs": [
        {
          "internalType": "uint16",
          "name": "",
          "type": "uint16"
        }
      ],
      "stateMutability": "view",
      "type": "function"
    },
    {
      "inputs": [],
      "name": "totalSupply",
      "outputs": [
        {
          "internalType": "uint256",
          "name": "",
          "type": "uint256"
        }
      ],
      "stateMutability": "view",
      "type": "function"
    },
    {
      "inputs": [
        {
          "internalType": "address",
          "name": "to",
          "type": "address"
        },
        {
          "internalType": "uint256",
          "name": "amount",
          "type": "uint256"
        }
      ],
      "name": "transfer",
      "outputs": [
        {
          "internalType": "bool",
          "name": "",
          "type": "bool"
        }
      ],
      "stateMutability": "nonpayable",
      "type": "function"
    },
    {
      "inputs": [
        {
          "internalType": "address",
          "name": "from",
          "type": "address"
        },
        {
          "internalType": "address",
          "name": "to",
          "type": "address"
        },
        {
          "internalType": "uint256",
          "name": "amount",
          "type": "uint256"
        }
      ],
      "name": "transferFrom",
      "outputs": [
        {
          "internalType": "bool",
          "name": "",
          "type": "bool"
        }
      ],
      "stateMutability": "nonpayable",
      "type": "function"
    },
    {
      "inputs": [
        {
          "internalType": "address",
          "name": "newOwner",
          "type": "address"
        }
      ],
      "name": "transferOwnership",
      "outputs": [],
      "stateMutability": "nonpayable",
      "type": "function"
    },
    {
      "inputs": [
        {
          "internalType": "uint256",
          "name": "_maxBuyAmount",
          "type": "uint256"
        }
      ],
      "name": "updateMaxBuyAmount",
      "outputs": [],
      "stateMutability": "nonpayable",
      "type": "function"
    },
    {
      "inputs": [
        {
          "internalType": "uint256",
          "name": "_maxWalletAmount",
          "type": "uint256"
        }
      ],
      "name": "updateMaxWalletAmount",
      "outputs": [],
      "stateMutability": "nonpayable",
      "type": "function"
    },
    {
      "inputs": [
        {
          "internalType": "address",
          "name": "router",
          "type": "address"
        }
      ],
      "name": "updateRouterV2",
      "outputs": [],
      "stateMutability": "nonpayable",
      "type": "function"
    },
    {
      "inputs": [
        {
          "internalType": "uint16",
          "name": "_swapThresholdRatio",
          "type": "uint16"
        }
      ],
      "name": "updateSwapThreshold",
      "outputs": [],
      "stateMutability": "nonpayable",
      "type": "function"
    },
    {
      "stateMutability": "payable",
      "type": "receive"
    }
  ],
  "bytecode": "0x608060405234801561001057600080fd5b506040518060400160405280600c81526020017f427574746572666c7920416900000000000000000000000000000000000000008152506040518060400160405280600381526020017f464c590000000000000000000000000000000000000000000000000000000000815250816003908161008c919061127f565b50806004908161009c919061127f565b5050506100bb6100b06101e960201b60201c565b6101f160201b60201c565b6000730478aa0f766bbcfd0882ad8ae5df5f0531f0606590506100e4603261022860201b60201c565b610107730478aa0f766bbcfd0882ad8ae5df5f0531f060656102e660201b60201c565b61011d6101f4611388600061040060201b60201c565b61012e81600161079060201b60201c565b61013f30600161079060201b60201c565b61015081600161084760201b60201c565b61016130600161084760201b60201c565b6101736000600161084760201b60201c565b61018c692a5a058fc295ed0000006108f060201b60201c565b6101a5692a5a058fc295ed00000061098f60201b60201c565b6101c0816a084595161401484a000000610a2e60201b60201c565b6101e3730478aa0f766bbcfd0882ad8ae5df5f0531f060656101f160201b60201c565b50611b03565b600033905090565b600660006101000a81549073ffffffffffffffffffffffffffffffffffffffff021916905561022581610b9060201b60201c565b50565b610236610c5660201b60201c565b60008161ffff1611801561025057506101f48161ffff1611155b61028f576040517f08c379a0000000000000000000000000000000000000000000000000000000008152600401610286906113fa565b60405180910390fd5b80600660146101000a81548161ffff021916908361ffff1602179055507fcf1366790fe21e66c9df9dcf67218b1e10acd64d3c99ae8a7429a68de91f1720816040516102db9190611437565b60405180910390a150565b6102f4610c5660201b60201c565b600073ffffffffffffffffffffffffffffffffffffffff168173ffffffffffffffffffffffffffffffffffffffff1603610363576040517f08c379a000000000000000000000000000000000000000000000000000000000815260040161035a906114ea565b60405180910390fd5b80600860006101000a81548173ffffffffffffffffffffffffffffffffffffffff021916908373ffffffffffffffffffffffffffffffffffffffff1602179055506103b581600161079060201b60201c565b6103c681600161084760201b60201c565b7f6e25174a1c60e9d62c82eed735a7d443dd0b6ea68bc2d0d936273e08fb532cac816040516103f5919061154b565b60405180910390a150565b61040e610c5660201b60201c565b82600960006003811061042457610423611566565b5b601091828204019190066002029054906101000a900461ffff16600b60006003811061045357610452611566565b5b601091828204019190066002029054906101000a900461ffff1661047791906115c4565b61048191906115fa565b600b60006003811061049657610495611566565b5b601091828204019190066002026101000a81548161ffff021916908361ffff1602179055508160096001600381106104d1576104d0611566565b5b601091828204019190066002029054906101000a900461ffff16600b600160038110610500576104ff611566565b5b601091828204019190066002029054906101000a900461ffff1661052491906115c4565b61052e91906115fa565b600b60016003811061054357610542611566565b5b601091828204019190066002026101000a81548161ffff021916908361ffff16021790555080600960026003811061057e5761057d611566565b5b601091828204019190066002029054906101000a900461ffff16600b6002600381106105ad576105ac611566565b5b601091828204019190066002029054906101000a900461ffff166105d191906115c4565b6105db91906115fa565b600b6002600381106105f0576105ef611566565b5b601091828204019190066002026101000a81548161ffff021916908361ffff160217905550611388600b60006003811061062d5761062c611566565b5b601091828204019190066002029054906101000a900461ffff1661ffff161115801561068d5750611388600b60016003811061066c5761066b611566565b5b601091828204019190066002029054906101000a900461ffff1661ffff1611155b80156106cd5750611388600b6002600381106106ac576106ab611566565b5b601091828204019190066002029054906101000a900461ffff1661ffff1611155b61070c576040517f08c379a0000000000000000000000000000000000000000000000000000000008152600401610703906116a2565b60405180910390fd5b60405180606001604052808461ffff1661ffff1681526020018361ffff1661ffff1681526020018261ffff1661ffff16815250600990600361074f929190610f75565b507f4963431b187ee291501376bba89c8c815c04c831b33839c8b2ec099899153df4838383604051610783939291906116c2565b60405180910390a1505050565b61079e610c5660201b60201c565b80600a60008473ffffffffffffffffffffffffffffffffffffffff1673ffffffffffffffffffffffffffffffffffffffff16815260200190815260200160002060006101000a81548160ff0219169083151502179055508173ffffffffffffffffffffffffffffffffffffffff167f9d8f7706ea1113d1a167b526eca956215946dd36cc7df39eb16180222d8b5df78260405161083b9190611714565b60405180910390a25050565b80600f60008473ffffffffffffffffffffffffffffffffffffffff1673ffffffffffffffffffffffffffffffffffffffff16815260200190815260200160002060006101000a81548160ff0219169083151502179055508173ffffffffffffffffffffffffffffffffffffffff167f4b89c347592b1d537e066cb4ed98d87696ae35164745d7e370e4add16941dc92826040516108e49190611714565b60405180910390a25050565b6108fe610c5660201b60201c565b61090c610ce060201b60201c565b81101561094e576040517f08c379a00000000000000000000000000000000000000000000000000000000081526004016109459061177b565b60405180910390fd5b806010819055507f4b39c36d20c57d220f61fd25c4349d4435cc03ef6c2a680942f15333c3c3e0018160405161098491906117aa565b60405180910390a150565b61099d610c5660201b60201c565b6109ab610d0260201b60201c565b8110156109ed576040517f08c379a00000000000000000000000000000000000000000000000000000000081526004016109e490611811565b60405180910390fd5b806011819055507fd0459d371e1defb856088ceda9d33bfed2a31a105e0bae2113cdc7dcc9e77e9d81604051610a2391906117aa565b60405180910390a150565b600073ffffffffffffffffffffffffffffffffffffffff168273ffffffffffffffffffffffffffffffffffffffff1603610a9d576040517f08c379a0000000000000000000000000000000000000000000000000000000008152600401610a949061187d565b60405180910390fd5b610aaf60008383610d3060201b60201c565b8060026000828254610ac1919061189d565b92505081905550806000808473ffffffffffffffffffffffffffffffffffffffff1673ffffffffffffffffffffffffffffffffffffffff168152602001908152602001600020600082825401925050819055508173ffffffffffffffffffffffffffffffffffffffff16600073ffffffffffffffffffffffffffffffffffffffff167fddf252ad1be2c89b69c2b068fc378daa952ba7f163c4a11628f55a4df523b3ef83604051610b7291906117aa565b60405180910390a3610b8c60008383610e3460201b60201c565b5050565b6000600560009054906101000a900473ffffffffffffffffffffffffffffffffffffffff16905081600560006101000a81548173ffffffffffffffffffffffffffffffffffffffff021916908373ffffffffffffffffffffffffffffffffffffffff1602179055508173ffffffffffffffffffffffffffffffffffffffff168173ffffffffffffffffffffffffffffffffffffffff167f8be0079c531659141344cd1fd0a4f28419497f9722a3daafe3b4186f6b6457e060405160405180910390a35050565b610c646101e960201b60201c565b73ffffffffffffffffffffffffffffffffffffffff16610c88610eef60201b60201c565b73ffffffffffffffffffffffffffffffffffffffff1614610cde576040517f08c379a0000000000000000000000000000000000000000000000000000000008152600401610cd59061191d565b60405180910390fd5b565b60006103e8610cf3610f1960201b60201c565b610cfd919061196c565b905090565b60006127106005610d17610f1960201b60201c565b610d21919061199d565b610d2b919061196c565b905090565b600e60008473ffffffffffffffffffffffffffffffffffffffff1673ffffffffffffffffffffffffffffffffffffffff16815260200190815260200160002060009054906101000a900460ff168015610dd35750600f60008373ffffffffffffffffffffffffffffffffffffffff1673ffffffffffffffffffffffffffffffffffffffff16815260200190815260200160002060009054906101000a900460ff16155b15610e1e57601154811115610e1d576040517f08c379a0000000000000000000000000000000000000000000000000000000008152600401610e1490611a51565b60405180910390fd5b5b610e2f838383610f2360201b60201c565b505050565b600f60008373ffffffffffffffffffffffffffffffffffffffff1673ffffffffffffffffffffffffffffffffffffffff16815260200190815260200160002060009054906101000a900460ff16610ed957601054610e9783610f2860201b60201c565b1115610ed8576040517f08c379a0000000000000000000000000000000000000000000000000000000008152600401610ecf90611ae3565b60405180910390fd5b5b610eea838383610f7060201b60201c565b505050565b6000600560009054906101000a900473ffffffffffffffffffffffffffffffffffffffff16905090565b6000600254905090565b505050565b60008060008373ffffffffffffffffffffffffffffffffffffffff1673ffffffffffffffffffffffffffffffffffffffff168152602001908152602001600020549050919050565b505050565b826003600f016010900481019282156110015791602002820160005b83821115610fd157835183826101000a81548161ffff021916908361ffff1602179055509260200192600201602081600101049283019260010302610f91565b8015610fff5782816101000a81549061ffff0219169055600201602081600101049283019260010302610fd1565b505b50905061100e9190611012565b5090565b5b8082111561102b576000816000905550600101611013565b5090565b600081519050919050565b7f4e487b7100000000000000000000000000000000000000000000000000000000600052604160045260246000fd5b7f4e487b7100000000000000000000000000000000000000000000000000000000600052602260045260246000fd5b600060028204905060018216806110b057607f821691505b6020821081036110c3576110c2611069565b5b50919050565b60008190508160005260206000209050919050565b60006020601f8301049050919050565b600082821b905092915050565b60006008830261112b7fffffffffffffffffffffffffffffffffffffffffffffffffffffffffffffffff826110ee565b61113586836110ee565b95508019841693508086168417925050509392505050565b6000819050919050565b6000819050919050565b600061117c6111776111728461114d565b611157565b61114d565b9050919050565b6000819050919050565b61119683611161565b6111aa6111a282611183565b8484546110fb565b825550505050565b600090565b6111bf6111b2565b6111ca81848461118d565b505050565b5b818110156111ee576111e36000826111b7565b6001810190506111d0565b5050565b601f82111561123357611204816110c9565b61120d846110de565b8101602085101561121c578190505b611230611228856110de565b8301826111cf565b50505b505050565b600082821c905092915050565b600061125660001984600802611238565b1980831691505092915050565b600061126f8383611245565b9150826002028217905092915050565b6112888261102f565b67ffffffffffffffff8111156112a1576112a061103a565b5b6112ab8254611098565b6112b68282856111f2565b600060209050601f8311600181146112e957600084156112d7578287015190505b6112e18582611263565b865550611349565b601f1984166112f7866110c9565b60005b8281101561131f578489015182556001820191506020850194506020810190506112fa565b8683101561133c5784890151611338601f891682611245565b8355505b6001600288020188555050505b505050505050565b600082825260208201905092915050565b7f537761705468726573686f6c643a2043616e6e6f7420657863656564206c696d60008201527f6974732066726f6d20302e30312520746f20352520666f72206e65772073776160208201527f70207468726573686f6c64000000000000000000000000000000000000000000604082015250565b60006113e4604b83611351565b91506113ef82611362565b606082019050919050565b60006020820190508181036000830152611413816113d7565b9050919050565b600061ffff82169050919050565b6114318161141a565b82525050565b600060208201905061144c6000830184611428565b92915050565b7f546178657344656661756c74526f7574657257616c6c65743a2057616c6c657460008201527f2074617820726563697069656e742063616e6e6f74206265206120307830206160208201527f6464726573730000000000000000000000000000000000000000000000000000604082015250565b60006114d4604683611351565b91506114df82611452565b606082019050919050565b60006020820190508181036000830152611503816114c7565b9050919050565b600073ffffffffffffffffffffffffffffffffffffffff82169050919050565b60006115358261150a565b9050919050565b6115458161152a565b82525050565b6000602082019050611560600083018461153c565b92915050565b7f4e487b7100000000000000000000000000000000000000000000000000000000600052603260045260246000fd5b7f4e487b7100000000000000000000000000000000000000000000000000000000600052601160045260246000fd5b60006115cf8261141a565b91506115da8361141a565b9250828203905061ffff8111156115f4576115f3611595565b5b92915050565b60006116058261141a565b91506116108361141a565b9250828201905061ffff81111561162a57611629611595565b5b92915050565b7f546178657344656661756c74526f757465723a2043616e6e6f7420657863656560008201527f64206d617820746f74616c20666565206f662035302500000000000000000000602082015250565b600061168c603683611351565b915061169782611630565b604082019050919050565b600060208201905081810360008301526116bb8161167f565b9050919050565b60006060820190506116d76000830186611428565b6116e46020830185611428565b6116f16040830184611428565b949350505050565b60008115159050919050565b61170e816116f9565b82525050565b60006020820190506117296000830184611705565b92915050565b7f4d617857616c6c65743a204c696d697420746f6f206c6f770000000000000000600082015250565b6000611765601883611351565b91506117708261172f565b602082019050919050565b6000602082019050818103600083015261179481611758565b9050919050565b6117a48161114d565b82525050565b60006020820190506117bf600083018461179b565b92915050565b7f4d617854783a204c696d697420746f6f206c6f77000000000000000000000000600082015250565b60006117fb601483611351565b9150611806826117c5565b602082019050919050565b6000602082019050818103600083015261182a816117ee565b9050919050565b7f45524332303a206d696e7420746f20746865207a65726f206164647265737300600082015250565b6000611867601f83611351565b915061187282611831565b602082019050919050565b600060208201905081810360008301526118968161185a565b9050919050565b60006118a88261114d565b91506118b38361114d565b92508282019050808211156118cb576118ca611595565b5b92915050565b7f4f776e61626c653a2063616c6c6572206973206e6f7420746865206f776e6572600082015250565b6000611907602083611351565b9150611912826118d1565b602082019050919050565b60006020820190508181036000830152611936816118fa565b9050919050565b7f4e487b7100000000000000000000000000000000000000000000000000000000600052601260045260246000fd5b60006119778261114d565b91506119828361114d565b9250826119925761199161193d565b5b828204905092915050565b60006119a88261114d565b91506119b38361114d565b92508282026119c18161114d565b915082820484148315176119d8576119d7611595565b5b5092915050565b7f4d617854783a2043616e6e6f7420657863656564206d617820627579206c696d60008201527f6974000000000000000000000000000000000000000000000000000000000000602082015250565b6000611a3b602283611351565b9150611a46826119df565b604082019050919050565b60006020820190508181036000830152611a6a81611a2e565b9050919050565b7f4d617857616c6c65743a2043616e6e6f7420657863656564206d61782077616c60008201527f6c6574206c696d69740000000000000000000000000000000000000000000000602082015250565b6000611acd602983611351565b9150611ad882611a71565b604082019050919050565b60006020820190508181036000830152611afc81611ac0565b9050919050565b6143e580611b126000396000f3fe60806040526004361061023f5760003560e01c806379ba50971161012e578063c0246668116100ab578063dd62ed3e1161006f578063dd62ed3e146108b6578063e30c3978146108f3578063f112ba721461091e578063f2fde38b14610949578063f7d3eca51461097257610246565b8063c0246668146107e5578063c0a904a21461080e578063c18bc19514610837578063c1d4212d14610860578063d94775261461088b57610246565b806395d89b41116100f257806395d89b41146106ec578063a457c2d714610717578063a9059cbb14610754578063aa4bde2814610791578063afbfcbbc146107bc57610246565b806379ba50971461062b57806379cc67901461064257806388e765ff1461066b5780638da5cb5b146106965780638fffabed146106c157610246565b806342966c68116101bc5780635cce86cd116101805780635cce86cd1461052057806370a082311461055d578063715018a61461059a57806375c211e0146105b157806376856557146105ee57610246565b806342966c681461043b5780634f011b83146104645780634fbee1931461048f578063502f7446146104cc57806356417fef146104f757610246565b80632be32b61116102035780632be32b61146103445780632d99d32e1461036d578063313ce5671461039657806339509351146103c1578063408ccbdf146103fe57610246565b806306fdde031461024b578063095ea7b31461027657806318160ddd146102b35780631a0e718c146102de57806323b872dd1461030757610246565b3661024657005b600080fd5b34801561025757600080fd5b5061026061099b565b60405161026d9190613031565b60405180910390f35b34801561028257600080fd5b5061029d600480360381019061029891906130ec565b610a2d565b6040516102aa9190613147565b60405180910390f35b3480156102bf57600080fd5b506102c8610a50565b6040516102d59190613171565b60405180910390f35b3480156102ea57600080fd5b50610305600480360381019061030091906131c6565b610a5a565b005b34801561031357600080fd5b5061032e600480360381019061032991906131f3565b610b12565b60405161033b9190613147565b60405180910390f35b34801561035057600080fd5b5061036b60048036038101906103669190613246565b610b41565b005b34801561037957600080fd5b50610394600480360381019061038f919061329f565b610bd4565b005b3480156103a257600080fd5b506103ab610c7a565b6040516103b891906132fb565b60405180910390f35b3480156103cd57600080fd5b506103e860048036038101906103e391906130ec565b610c83565b6040516103f59190613147565b60405180910390f35b34801561040a57600080fd5b5061042560048036038101906104209190613246565b610cba565b6040516104329190613325565b60405180910390f35b34801561044757600080fd5b50610462600480360381019061045d9190613246565b610ce8565b005b34801561047057600080fd5b50610479610cfc565b6040516104869190613325565b60405180910390f35b34801561049b57600080fd5b506104b660048036038101906104b19190613340565b610d10565b6040516104c39190613147565b60405180910390f35b3480156104d857600080fd5b506104e1610d30565b6040516104ee91906133cc565b60405180910390f35b34801561050357600080fd5b5061051e60048036038101906105199190613340565b610d56565b005b34801561052c57600080fd5b5061054760048036038101906105429190613340565b610e5e565b6040516105549190613147565b60405180910390f35b34801561056957600080fd5b50610584600480360381019061057f9190613340565b610e7e565b6040516105919190613171565b60405180910390f35b3480156105a657600080fd5b506105af610ec6565b005b3480156105bd57600080fd5b506105d860048036038101906105d39190613246565b610eda565b6040516105e59190613325565b60405180910390f35b3480156105fa57600080fd5b5061061560048036038101906106109190613340565b610f08565b6040516106229190613147565b60405180910390f35b34801561063757600080fd5b50610640610f28565b005b34801561064e57600080fd5b50610669600480360381019061066491906130ec565b610fb5565b005b34801561067757600080fd5b50610680610fd5565b60405161068d9190613171565b60405180910390f35b3480156106a257600080fd5b506106ab610fdb565b6040516106b891906133f6565b60405180910390f35b3480156106cd57600080fd5b506106d6611005565b6040516106e391906133f6565b60405180910390f35b3480156106f857600080fd5b5061070161102b565b60405161070e9190613031565b60405180910390f35b34801561072357600080fd5b5061073e600480360381019061073991906130ec565b6110bd565b60405161074b9190613147565b60405180910390f35b34801561076057600080fd5b5061077b600480360381019061077691906130ec565b611134565b6040516107889190613147565b60405180910390f35b34801561079d57600080fd5b506107a6611157565b6040516107b39190613171565b60405180910390f35b3480156107c857600080fd5b506107e360048036038101906107de9190613340565b61115d565b005b3480156107f157600080fd5b5061080c6004803603810190610807919061329f565b611402565b005b34801561081a57600080fd5b506108356004803603810190610830919061329f565b6114b3565b005b34801561084357600080fd5b5061085e60048036038101906108599190613246565b6114c9565b005b34801561086c57600080fd5b5061087561155c565b60405161088291906133f6565b60405180910390f35b34801561089757600080fd5b506108a0611582565b6040516108ad9190613171565b60405180910390f35b3480156108c257600080fd5b506108dd60048036038101906108d89190613411565b6115e0565b6040516108ea9190613171565b60405180910390f35b3480156108ff57600080fd5b50610908611667565b60405161091591906133f6565b60405180910390f35b34801561092a57600080fd5b50610933611691565b6040516109409190613171565b60405180910390f35b34801561095557600080fd5b50610970600480360381019061096b9190613340565b6116a7565b005b34801561097e57600080fd5b5061099960048036038101906109949190613451565b611754565b005b6060600380546109aa906134d3565b80601f01602080910402602001604051908101604052809291908181526020018280546109d6906134d3565b8015610a235780601f106109f857610100808354040283529160200191610a23565b820191906000526020600020905b815481529060010190602001808311610a0657829003601f168201915b5050505050905090565b600080610a38611ade565b9050610a45818585611ae6565b600191505092915050565b6000600254905090565b610a62611caf565b60008161ffff16118015610a7c57506101f48161ffff1611155b610abb576040517f08c379a0000000000000000000000000000000000000000000000000000000008152600401610ab29061359c565b60405180910390fd5b80600660146101000a81548161ffff021916908361ffff1602179055507fcf1366790fe21e66c9df9dcf67218b1e10acd64d3c99ae8a7429a68de91f172081604051610b079190613325565b60405180910390a150565b600080610b1d611ade565b9050610b2a858285611d2d565b610b35858585611db9565b60019150509392505050565b610b49611caf565b610b5161240b565b811015610b93576040517f08c379a0000000000000000000000000000000000000000000000000000000008152600401610b8a90613608565b60405180910390fd5b806011819055507fd0459d371e1defb856088ceda9d33bfed2a31a105e0bae2113cdc7dcc9e77e9d81604051610bc99190613171565b60405180910390a150565b610bdc611caf565b600d60009054906101000a900473ffffffffffffffffffffffffffffffffffffffff1673ffffffffffffffffffffffffffffffffffffffff168273ffffffffffffffffffffffffffffffffffffffff1603610c6c576040517f08c379a0000000000000000000000000000000000000000000000000000000008152600401610c639061369a565b60405180910390fd5b610c768282612433565b5050565b60006012905090565b600080610c8e611ade565b9050610caf818585610ca085896115e0565b610caa91906136e9565b611ae6565b600191505092915050565b600b8160038110610cca57600080fd5b60109182820401919006600202915054906101000a900461ffff1681565b610cf9610cf3611ade565b826124ee565b50565b600660149054906101000a900461ffff1681565b600a6020528060005260406000206000915054906101000a900460ff1681565b600c60019054906101000a900473ffffffffffffffffffffffffffffffffffffffff1681565b610d5e611caf565b600073ffffffffffffffffffffffffffffffffffffffff168173ffffffffffffffffffffffffffffffffffffffff1603610dcd576040517f08c379a0000000000000000000000000000000000000000000000000000000008152600401610dc4906137b5565b60405180910390fd5b80600860006101000a81548173ffffffffffffffffffffffffffffffffffffffff021916908373ffffffffffffffffffffffffffffffffffffffff160217905550610e19816001611402565b610e248160016126bb565b7f6e25174a1c60e9d62c82eed735a7d443dd0b6ea68bc2d0d936273e08fb532cac81604051610e5391906133f6565b60405180910390a150565b600f6020528060005260406000206000915054906101000a900460ff1681565b60008060008373ffffffffffffffffffffffffffffffffffffffff1673ffffffffffffffffffffffffffffffffffffffff168152602001908152602001600020549050919050565b610ece611caf565b610ed86000612764565b565b60098160038110610eea57600080fd5b60109182820401919006600202915054906101000a900461ffff1681565b600e6020528060005260406000206000915054906101000a900460ff1681565b6000610f32611ade565b90508073ffffffffffffffffffffffffffffffffffffffff16610f53611667565b73ffffffffffffffffffffffffffffffffffffffff1614610fa9576040517f08c379a0000000000000000000000000000000000000000000000000000000008152600401610fa090613847565b60405180910390fd5b610fb281612764565b50565b610fc782610fc1611ade565b83611d2d565b610fd182826124ee565b5050565b60115481565b6000600560009054906101000a900473ffffffffffffffffffffffffffffffffffffffff16905090565b600d60009054906101000a900473ffffffffffffffffffffffffffffffffffffffff1681565b60606004805461103a906134d3565b80601f0160208091040260200160405190810160405280929190818152602001828054611066906134d3565b80156110b35780601f10611088576101008083540402835291602001916110b3565b820191906000526020600020905b81548152906001019060200180831161109657829003601f168201915b5050505050905090565b6000806110c8611ade565b905060006110d682866115e0565b90508381101561111b576040517f08c379a0000000000000000000000000000000000000000000000000000000008152600401611112906138d9565b60405180910390fd5b6111288286868403611ae6565b60019250505092915050565b60008061113f611ade565b905061114c818585611db9565b600191505092915050565b60105481565b611165611caf565b80600c60016101000a81548173ffffffffffffffffffffffffffffffffffffffff021916908373ffffffffffffffffffffffffffffffffffffffff160217905550600c60019054906101000a900473ffffffffffffffffffffffffffffffffffffffff1673ffffffffffffffffffffffffffffffffffffffff1663c45a01556040518163ffffffff1660e01b8152600401602060405180830381865afa158015611213573d6000803e3d6000fd5b505050506040513d601f19601f82011682018060405250810190611237919061390e565b73ffffffffffffffffffffffffffffffffffffffff1663c9c6539630600c60019054906101000a900473ffffffffffffffffffffffffffffffffffffffff1673ffffffffffffffffffffffffffffffffffffffff1663ad5c46486040518163ffffffff1660e01b8152600401602060405180830381865afa1580156112c0573d6000803e3d6000fd5b505050506040513d601f19601f820116820180604052508101906112e4919061390e565b6040518363ffffffff1660e01b815260040161130192919061393b565b6020604051808303816000875af1158015611320573d6000803e3d6000fd5b505050506040513d601f19601f82011682018060405250810190611344919061390e565b600d60006101000a81548173ffffffffffffffffffffffffffffffffffffffff021916908373ffffffffffffffffffffffffffffffffffffffff16021790555061138f8160016126bb565b6113bc600d60009054906101000a900473ffffffffffffffffffffffffffffffffffffffff166001612433565b8073ffffffffffffffffffffffffffffffffffffffff167fbc052db65df144ad4f71f02da93cae3d4401104c30ac374d7cc10d87ee07b60260405160405180910390a250565b61140a611caf565b80600a60008473ffffffffffffffffffffffffffffffffffffffff1673ffffffffffffffffffffffffffffffffffffffff16815260200190815260200160002060006101000a81548160ff0219169083151502179055508173ffffffffffffffffffffffffffffffffffffffff167f9d8f7706ea1113d1a167b526eca956215946dd36cc7df39eb16180222d8b5df7826040516114a79190613147565b60405180910390a25050565b6114bb611caf565b6114c582826126bb565b5050565b6114d1611caf565b6114d9612795565b81101561151b576040517f08c379a0000000000000000000000000000000000000000000000000000000008152600401611512906139b0565b60405180910390fd5b806010819055507f4b39c36d20c57d220f61fd25c4349d4435cc03ef6c2a680942f15333c3c3e001816040516115519190613171565b60405180910390a150565b600860009054906101000a900473ffffffffffffffffffffffffffffffffffffffff1681565b6000612710600660149054906101000a900461ffff1661ffff166115c7600d60009054906101000a900473ffffffffffffffffffffffffffffffffffffffff16610e7e565b6115d191906139d0565b6115db9190613a41565b905090565b6000600160008473ffffffffffffffffffffffffffffffffffffffff1673ffffffffffffffffffffffffffffffffffffffff16815260200190815260200160002060008373ffffffffffffffffffffffffffffffffffffffff1673ffffffffffffffffffffffffffffffffffffffff16815260200190815260200160002054905092915050565b6000600660009054906101000a900473ffffffffffffffffffffffffffffffffffffffff16905090565b600060075460006116a291906136e9565b905090565b6116af611caf565b80600660006101000a81548173ffffffffffffffffffffffffffffffffffffffff021916908373ffffffffffffffffffffffffffffffffffffffff1602179055508073ffffffffffffffffffffffffffffffffffffffff1661170f610fdb565b73ffffffffffffffffffffffffffffffffffffffff167f38d16b8cac22d99fc7c124b9cd0de2d3fa1faef420bfe791d8c362d765e2270060405160405180910390a350565b61175c611caf565b82600960006003811061177257611771613a72565b5b601091828204019190066002029054906101000a900461ffff16600b6000600381106117a1576117a0613a72565b5b601091828204019190066002029054906101000a900461ffff166117c59190613aa1565b6117cf9190613ad7565b600b6000600381106117e4576117e3613a72565b5b601091828204019190066002026101000a81548161ffff021916908361ffff16021790555081600960016003811061181f5761181e613a72565b5b601091828204019190066002029054906101000a900461ffff16600b60016003811061184e5761184d613a72565b5b601091828204019190066002029054906101000a900461ffff166118729190613aa1565b61187c9190613ad7565b600b60016003811061189157611890613a72565b5b601091828204019190066002026101000a81548161ffff021916908361ffff1602179055508060096002600381106118cc576118cb613a72565b5b601091828204019190066002029054906101000a900461ffff16600b6002600381106118fb576118fa613a72565b5b601091828204019190066002029054906101000a900461ffff1661191f9190613aa1565b6119299190613ad7565b600b60026003811061193e5761193d613a72565b5b601091828204019190066002026101000a81548161ffff021916908361ffff160217905550611388600b60006003811061197b5761197a613a72565b5b601091828204019190066002029054906101000a900461ffff1661ffff16111580156119db5750611388600b6001600381106119ba576119b9613a72565b5b601091828204019190066002029054906101000a900461ffff1661ffff1611155b8015611a1b5750611388600b6002600381106119fa576119f9613a72565b5b601091828204019190066002029054906101000a900461ffff1661ffff1611155b611a5a576040517f08c379a0000000000000000000000000000000000000000000000000000000008152600401611a5190613b7f565b60405180910390fd5b60405180606001604052808461ffff1661ffff1681526020018361ffff1661ffff1681526020018261ffff1661ffff168152506009906003611a9d929190612ee7565b507f4963431b187ee291501376bba89c8c815c04c831b33839c8b2ec099899153df4838383604051611ad193929190613b9f565b60405180910390a1505050565b600033905090565b600073ffffffffffffffffffffffffffffffffffffffff168373ffffffffffffffffffffffffffffffffffffffff1603611b55576040517f08c379a0000000000000000000000000000000000000000000000000000000008152600401611b4c90613c48565b60405180910390fd5b600073ffffffffffffffffffffffffffffffffffffffff168273ffffffffffffffffffffffffffffffffffffffff1603611bc4576040517f08c379a0000000000000000000000000000000000000000000000000000000008152600401611bbb90613cda565b60405180910390fd5b80600160008573ffffffffffffffffffffffffffffffffffffffff1673ffffffffffffffffffffffffffffffffffffffff16815260200190815260200160002060008473ffffffffffffffffffffffffffffffffffffffff1673ffffffffffffffffffffffffffffffffffffffff168152602001908152602001600020819055508173ffffffffffffffffffffffffffffffffffffffff168373ffffffffffffffffffffffffffffffffffffffff167f8c5be1e5ebec7d5bd14f71427d1e84f3dd0314c0f7b2291e5b200ac8c7c3b92583604051611ca29190613171565b60405180910390a3505050565b611cb7611ade565b73ffffffffffffffffffffffffffffffffffffffff16611cd5610fdb565b73ffffffffffffffffffffffffffffffffffffffff1614611d2b576040517f08c379a0000000000000000000000000000000000000000000000000000000008152600401611d2290613d46565b60405180910390fd5b565b6000611d3984846115e0565b90507fffffffffffffffffffffffffffffffffffffffffffffffffffffffffffffffff8114611db35781811015611da5576040517f08c379a0000000000000000000000000000000000000000000000000000000008152600401611d9c90613db2565b60405180910390fd5b611db28484848403611ae6565b5b50505050565b600c60009054906101000a900460ff16158015611dd65750600081115b8015611e305750600c60019054906101000a900473ffffffffffffffffffffffffffffffffffffffff1673ffffffffffffffffffffffffffffffffffffffff168273ffffffffffffffffffffffffffffffffffffffff1614155b8015611e865750600a60008473ffffffffffffffffffffffffffffffffffffffff1673ffffffffffffffffffffffffffffffffffffffff16815260200190815260200160002060009054906101000a900460ff16155b8015611edc5750600a60008373ffffffffffffffffffffffffffffffffffffffff1673ffffffffffffffffffffffffffffffffffffffff16815260200190815260200160002060009054906101000a900460ff16155b156121715760008060039050600e60008673ffffffffffffffffffffffffffffffffffffffff1673ffffffffffffffffffffffffffffffffffffffff16815260200190815260200160002060009054906101000a900460ff1615611f7f576000600b600060038110611f5157611f50613a72565b5b601091828204019190066002029054906101000a900461ffff1661ffff161115611f7a57600090505b612058565b600e60008573ffffffffffffffffffffffffffffffffffffffff1673ffffffffffffffffffffffffffffffffffffffff16815260200190815260200160002060009054906101000a900460ff1615612016576000600b600160038110611fe857611fe7613a72565b5b601091828204019190066002029054906101000a900461ffff1661ffff16111561201157600190505b612057565b6000600b60026003811061202d5761202c613a72565b5b601091828204019190066002029054906101000a900461ffff1661ffff16111561205657600290505b5b5b60038160ff16101561215957612710600b8260ff166003811061207e5761207d613a72565b5b601091828204019190066002029054906101000a900461ffff1661ffff16846120a791906139d0565b6120b19190613a41565b915081836120bf9190613dd2565b9250600b8160ff16600381106120d8576120d7613a72565b5b601091828204019190066002029054906101000a900461ffff1661ffff1660098260ff166003811061210d5761210c613a72565b5b601091828204019190066002029054906101000a900461ffff1661ffff168361213691906139d0565b6121409190613a41565b6007600082825461215191906136e9565b925050819055505b600082111561216e5761216d8530846127b1565b5b50505b600061217b611582565b9050600081612188611691565b101580156121c0575060006121be600d60009054906101000a900473ffffffffffffffffffffffffffffffffffffffff16610e7e565b115b9050600c60009054906101000a900460ff161580156122295750600e60008673ffffffffffffffffffffffffffffffffffffffff1673ffffffffffffffffffffffffffffffffffffffff16815260200190815260200160002060009054906101000a900460ff16155b80156122835750600c60019054906101000a900473ffffffffffffffffffffffffffffffffffffffff1673ffffffffffffffffffffffffffffffffffffffff168573ffffffffffffffffffffffffffffffffffffffff1614155b801561228c5750805b156123f9576001600c60006101000a81548160ff0219169083151502179055506000806122b95750600082115b156123dd5760008260006122cd91906136e9565b905060006122da82612a27565b600047905060008386836122ee91906139d0565b6122f89190613a41565b905060008111156123bf57600860009054906101000a900473ffffffffffffffffffffffffffffffffffffffff1673ffffffffffffffffffffffffffffffffffffffff166108fc829081150290604051600060405180830381858888f19350505050925082156123be577ff7a420e2cb7d3033ead185c897359ebf9011c07c771221fe5dbc21ca43cb684a600860009054906101000a900473ffffffffffffffffffffffffffffffffffffffff16826040516123b5929190613e06565b60405180910390a15b5b85600760008282546123d19190613dd2565b92505081905550505050505b6000600c60006101000a81548160ff0219169083151502179055505b6124048585856127b1565b5050505050565b6000612710600561241a610a50565b61242491906139d0565b61242e9190613a41565b905090565b80600e60008473ffffffffffffffffffffffffffffffffffffffff1673ffffffffffffffffffffffffffffffffffffffff16815260200190815260200160002060006101000a81548160ff021916908315150217905550801561249c5761249b8260016126bb565b5b8173ffffffffffffffffffffffffffffffffffffffff167f911aa18ddbbbc33c9b4c704a71bdaa0984b0aa2e82726a7f51e64bad0b0a8455826040516124e29190613147565b60405180910390a25050565b600073ffffffffffffffffffffffffffffffffffffffff168273ffffffffffffffffffffffffffffffffffffffff160361255d576040517f08c379a000000000000000000000000000000000000000000000000000000000815260040161255490613ea1565b60405180910390fd5b61256982600083612c6a565b60008060008473ffffffffffffffffffffffffffffffffffffffff1673ffffffffffffffffffffffffffffffffffffffff168152602001908152602001600020549050818110156125ef576040517f08c379a00000000000000000000000000000000000000000000000000000000081526004016125e690613f33565b60405180910390fd5b8181036000808573ffffffffffffffffffffffffffffffffffffffff1673ffffffffffffffffffffffffffffffffffffffff1681526020019081526020016000208190555081600260008282540392505081905550600073ffffffffffffffffffffffffffffffffffffffff168373ffffffffffffffffffffffffffffffffffffffff167fddf252ad1be2c89b69c2b068fc378daa952ba7f163c4a11628f55a4df523b3ef846040516126a29190613171565b60405180910390a36126b683600084612d68565b505050565b80600f60008473ffffffffffffffffffffffffffffffffffffffff1673ffffffffffffffffffffffffffffffffffffffff16815260200190815260200160002060006101000a81548160ff0219169083151502179055508173ffffffffffffffffffffffffffffffffffffffff167f4b89c347592b1d537e066cb4ed98d87696ae35164745d7e370e4add16941dc92826040516127589190613147565b60405180910390a25050565b600660006101000a81549073ffffffffffffffffffffffffffffffffffffffff021916905561279281612e17565b50565b60006103e86127a2610a50565b6127ac9190613a41565b905090565b600073ffffffffffffffffffffffffffffffffffffffff168373ffffffffffffffffffffffffffffffffffffffff1603612820576040517f08c379a000000000000000000000000000000000000000000000000000000000815260040161281790613fc5565b60405180910390fd5b600073ffffffffffffffffffffffffffffffffffffffff168273ffffffffffffffffffffffffffffffffffffffff160361288f576040517f08c379a000000000000000000000000000000000000000000000000000000000815260040161288690614057565b60405180910390fd5b61289a838383612c6a565b60008060008573ffffffffffffffffffffffffffffffffffffffff1673ffffffffffffffffffffffffffffffffffffffff16815260200190815260200160002054905081811015612920576040517f08c379a0000000000000000000000000000000000000000000000000000000008152600401612917906140e9565b60405180910390fd5b8181036000808673ffffffffffffffffffffffffffffffffffffffff1673ffffffffffffffffffffffffffffffffffffffff16815260200190815260200160002081905550816000808573ffffffffffffffffffffffffffffffffffffffff1673ffffffffffffffffffffffffffffffffffffffff168152602001908152602001600020600082825401925050819055508273ffffffffffffffffffffffffffffffffffffffff168473ffffffffffffffffffffffffffffffffffffffff167fddf252ad1be2c89b69c2b068fc378daa952ba7f163c4a11628f55a4df523b3ef84604051612a0e9190613171565b60405180910390a3612a21848484612d68565b50505050565b6000600267ffffffffffffffff811115612a4457612a43614109565b5b604051908082528060200260200182016040528015612a725781602001602082028036833780820191505090505b5090503081600081518110612a8a57612a89613a72565b5b602002602001019073ffffffffffffffffffffffffffffffffffffffff16908173ffffffffffffffffffffffffffffffffffffffff1681525050600c60019054906101000a900473ffffffffffffffffffffffffffffffffffffffff1673ffffffffffffffffffffffffffffffffffffffff1663ad5c46486040518163ffffffff1660e01b8152600401602060405180830381865afa158015612b31573d6000803e3d6000fd5b505050506040513d601f19601f82011682018060405250810190612b55919061390e565b81600181518110612b6957612b68613a72565b5b602002602001019073ffffffffffffffffffffffffffffffffffffffff16908173ffffffffffffffffffffffffffffffffffffffff1681525050612bd030600c60019054906101000a900473ffffffffffffffffffffffffffffffffffffffff1684611ae6565b600c60019054906101000a900473ffffffffffffffffffffffffffffffffffffffff1673ffffffffffffffffffffffffffffffffffffffff1663791ac9478360008430426040518663ffffffff1660e01b8152600401612c34959493929190614231565b600060405180830381600087803b158015612c4e57600080fd5b505af1158015612c62573d6000803e3d6000fd5b505050505050565b600e60008473ffffffffffffffffffffffffffffffffffffffff1673ffffffffffffffffffffffffffffffffffffffff16815260200190815260200160002060009054906101000a900460ff168015612d0d5750600f60008373ffffffffffffffffffffffffffffffffffffffff1673ffffffffffffffffffffffffffffffffffffffff16815260200190815260200160002060009054906101000a900460ff16155b15612d5857601154811115612d57576040517f08c379a0000000000000000000000000000000000000000000000000000000008152600401612d4e906142fd565b60405180910390fd5b5b612d63838383612edd565b505050565b600f60008373ffffffffffffffffffffffffffffffffffffffff1673ffffffffffffffffffffffffffffffffffffffff16815260200190815260200160002060009054906101000a900460ff16612e0757601054612dc583610e7e565b1115612e06576040517f08c379a0000000000000000000000000000000000000000000000000000000008152600401612dfd9061438f565b60405180910390fd5b5b612e12838383612ee2565b505050565b6000600560009054906101000a900473ffffffffffffffffffffffffffffffffffffffff16905081600560006101000a81548173ffffffffffffffffffffffffffffffffffffffff021916908373ffffffffffffffffffffffffffffffffffffffff1602179055508173ffffffffffffffffffffffffffffffffffffffff168173ffffffffffffffffffffffffffffffffffffffff167f8be0079c531659141344cd1fd0a4f28419497f9722a3daafe3b4186f6b6457e060405160405180910390a35050565b505050565b505050565b826003600f01601090048101928215612f735791602002820160005b83821115612f4357835183826101000a81548161ffff021916908361ffff1602179055509260200192600201602081600101049283019260010302612f03565b8015612f715782816101000a81549061ffff0219169055600201602081600101049283019260010302612f43565b505b509050612f809190612f84565b5090565b5b80821115612f9d576000816000905550600101612f85565b5090565b600081519050919050565b600082825260208201905092915050565b60005b83811015612fdb578082015181840152602081019050612fc0565b60008484015250505050565b6000601f19601f8301169050919050565b600061300382612fa1565b61300d8185612fac565b935061301d818560208601612fbd565b61302681612fe7565b840191505092915050565b6000602082019050818103600083015261304b8184612ff8565b905092915050565b600080fd5b600073ffffffffffffffffffffffffffffffffffffffff82169050919050565b600061308382613058565b9050919050565b61309381613078565b811461309e57600080fd5b50565b6000813590506130b08161308a565b92915050565b6000819050919050565b6130c9816130b6565b81146130d457600080fd5b50565b6000813590506130e6816130c0565b92915050565b6000806040838503121561310357613102613053565b5b6000613111858286016130a1565b9250506020613122858286016130d7565b9150509250929050565b60008115159050919050565b6131418161312c565b82525050565b600060208201905061315c6000830184613138565b92915050565b61316b816130b6565b82525050565b60006020820190506131866000830184613162565b92915050565b600061ffff82169050919050565b6131a38161318c565b81146131ae57600080fd5b50565b6000813590506131c08161319a565b92915050565b6000602082840312156131dc576131db613053565b5b60006131ea848285016131b1565b91505092915050565b60008060006060848603121561320c5761320b613053565b5b600061321a868287016130a1565b935050602061322b868287016130a1565b925050604061323c868287016130d7565b9150509250925092565b60006020828403121561325c5761325b613053565b5b600061326a848285016130d7565b91505092915050565b61327c8161312c565b811461328757600080fd5b50565b60008135905061329981613273565b92915050565b600080604083850312156132b6576132b5613053565b5b60006132c4858286016130a1565b92505060206132d58582860161328a565b9150509250929050565b600060ff82169050919050565b6132f5816132df565b82525050565b600060208201905061331060008301846132ec565b92915050565b61331f8161318c565b82525050565b600060208201905061333a6000830184613316565b92915050565b60006020828403121561335657613355613053565b5b6000613364848285016130a1565b91505092915050565b6000819050919050565b600061339261338d61338884613058565b61336d565b613058565b9050919050565b60006133a482613377565b9050919050565b60006133b682613399565b9050919050565b6133c6816133ab565b82525050565b60006020820190506133e160008301846133bd565b92915050565b6133f081613078565b82525050565b600060208201905061340b60008301846133e7565b92915050565b6000806040838503121561342857613427613053565b5b6000613436858286016130a1565b9250506020613447858286016130a1565b9150509250929050565b60008060006060848603121561346a57613469613053565b5b6000613478868287016131b1565b9350506020613489868287016131b1565b925050604061349a868287016131b1565b9150509250925092565b7f4e487b7100000000000000000000000000000000000000000000000000000000600052602260045260246000fd5b600060028204905060018216806134eb57607f821691505b6020821081036134fe576134fd6134a4565b5b50919050565b7f537761705468726573686f6c643a2043616e6e6f7420657863656564206c696d60008201527f6974732066726f6d20302e30312520746f20352520666f72206e65772073776160208201527f70207468726573686f6c64000000000000000000000000000000000000000000604082015250565b6000613586604b83612fac565b915061359182613504565b606082019050919050565b600060208201905081810360008301526135b581613579565b9050919050565b7f4d617854783a204c696d697420746f6f206c6f77000000000000000000000000600082015250565b60006135f2601483612fac565b91506135fd826135bc565b602082019050919050565b60006020820190508181036000830152613621816135e5565b9050919050565b7f44656661756c74526f757465723a2043616e6e6f742072656d6f766520696e6960008201527f7469616c20706169722066726f6d206c69737400000000000000000000000000602082015250565b6000613684603383612fac565b915061368f82613628565b604082019050919050565b600060208201905081810360008301526136b381613677565b9050919050565b7f4e487b7100000000000000000000000000000000000000000000000000000000600052601160045260246000fd5b60006136f4826130b6565b91506136ff836130b6565b9250828201905080821115613717576137166136ba565b5b92915050565b7f546178657344656661756c74526f7574657257616c6c65743a2057616c6c657460008201527f2074617820726563697069656e742063616e6e6f74206265206120307830206160208201527f6464726573730000000000000000000000000000000000000000000000000000604082015250565b600061379f604683612fac565b91506137aa8261371d565b606082019050919050565b600060208201905081810360008301526137ce81613792565b9050919050565b7f4f776e61626c6532537465703a2063616c6c6572206973206e6f74207468652060008201527f6e6577206f776e65720000000000000000000000000000000000000000000000602082015250565b6000613831602983612fac565b915061383c826137d5565b604082019050919050565b6000602082019050818103600083015261386081613824565b9050919050565b7f45524332303a2064656372656173656420616c6c6f77616e63652062656c6f7760008201527f207a65726f000000000000000000000000000000000000000000000000000000602082015250565b60006138c3602583612fac565b91506138ce82613867565b604082019050919050565b600060208201905081810360008301526138f2816138b6565b9050919050565b6000815190506139088161308a565b92915050565b60006020828403121561392457613923613053565b5b6000613932848285016138f9565b91505092915050565b600060408201905061395060008301856133e7565b61395d60208301846133e7565b9392505050565b7f4d617857616c6c65743a204c696d697420746f6f206c6f770000000000000000600082015250565b600061399a601883612fac565b91506139a582613964565b602082019050919050565b600060208201905081810360008301526139c98161398d565b9050919050565b60006139db826130b6565b91506139e6836130b6565b92508282026139f4816130b6565b91508282048414831517613a0b57613a0a6136ba565b5b5092915050565b7f4e487b7100000000000000000000000000000000000000000000000000000000600052601260045260246000fd5b6000613a4c826130b6565b9150613a57836130b6565b925082613a6757613a66613a12565b5b828204905092915050565b7f4e487b7100000000000000000000000000000000000000000000000000000000600052603260045260246000fd5b6000613aac8261318c565b9150613ab78361318c565b9250828203905061ffff811115613ad157613ad06136ba565b5b92915050565b6000613ae28261318c565b9150613aed8361318c565b9250828201905061ffff811115613b0757613b066136ba565b5b92915050565b7f546178657344656661756c74526f757465723a2043616e6e6f7420657863656560008201527f64206d617820746f74616c20666565206f662035302500000000000000000000602082015250565b6000613b69603683612fac565b9150613b7482613b0d565b604082019050919050565b60006020820190508181036000830152613b9881613b5c565b9050919050565b6000606082019050613bb46000830186613316565b613bc16020830185613316565b613bce6040830184613316565b949350505050565b7f45524332303a20617070726f76652066726f6d20746865207a65726f2061646460008201527f7265737300000000000000000000000000000000000000000000000000000000602082015250565b6000613c32602483612fac565b9150613c3d82613bd6565b604082019050919050565b60006020820190508181036000830152613c6181613c25565b9050919050565b7f45524332303a20617070726f766520746f20746865207a65726f20616464726560008201527f7373000000000000000000000000000000000000000000000000000000000000602082015250565b6000613cc4602283612fac565b9150613ccf82613c68565b604082019050919050565b60006020820190508181036000830152613cf381613cb7565b9050919050565b7f4f776e61626c653a2063616c6c6572206973206e6f7420746865206f776e6572600082015250565b6000613d30602083612fac565b9150613d3b82613cfa565b602082019050919050565b60006020820190508181036000830152613d5f81613d23565b9050919050565b7f45524332303a20696e73756666696369656e7420616c6c6f77616e6365000000600082015250565b6000613d9c601d83612fac565b9150613da782613d66565b602082019050919050565b60006020820190508181036000830152613dcb81613d8f565b9050919050565b6000613ddd826130b6565b9150613de8836130b6565b9250828203905081811115613e0057613dff6136ba565b5b92915050565b6000604082019050613e1b60008301856133e7565b613e286020830184613162565b9392505050565b7f45524332303a206275726e2066726f6d20746865207a65726f2061646472657360008201527f7300000000000000000000000000000000000000000000000000000000000000602082015250565b6000613e8b602183612fac565b9150613e9682613e2f565b604082019050919050565b60006020820190508181036000830152613eba81613e7e565b9050919050565b7f45524332303a206275726e20616d6f756e7420657863656564732062616c616e60008201527f6365000000000000000000000000000000000000000000000000000000000000602082015250565b6000613f1d602283612fac565b9150613f2882613ec1565b604082019050919050565b60006020820190508181036000830152613f4c81613f10565b9050919050565b7f45524332303a207472616e736665722066726f6d20746865207a65726f20616460008201527f6472657373000000000000000000000000000000000000000000000000000000602082015250565b6000613faf602583612fac565b9150613fba82613f53565b604082019050919050565b60006020820190508181036000830152613fde81613fa2565b9050919050565b7f45524332303a207472616e7366657220746f20746865207a65726f206164647260008201527f6573730000000000000000000000000000000000000000000000000000000000602082015250565b6000614041602383612fac565b915061404c82613fe5565b604082019050919050565b6000602082019050818103600083015261407081614034565b9050919050565b7f45524332303a207472616e7366657220616d6f756e742065786365656473206260008201527f616c616e63650000000000000000000000000000000000000000000000000000602082015250565b60006140d3602683612fac565b91506140de82614077565b604082019050919050565b60006020820190508181036000830152614102816140c6565b9050919050565b7f4e487b7100000000000000000000000000000000000000000000000000000000600052604160045260246000fd5b6000819050919050565b600061415d61415861415384614138565b61336d565b6130b6565b9050919050565b61416d81614142565b82525050565b600081519050919050565b600082825260208201905092915050565b6000819050602082019050919050565b6141a881613078565b82525050565b60006141ba838361419f565b60208301905092915050565b6000602082019050919050565b60006141de82614173565b6141e8818561417e565b93506141f38361418f565b8060005b8381101561422457815161420b88826141ae565b9750614216836141c6565b9250506001810190506141f7565b5085935050505092915050565b600060a0820190506142466000830188613162565b6142536020830187614164565b818103604083015261426581866141d3565b905061427460608301856133e7565b6142816080830184613162565b9695505050505050565b7f4d617854783a2043616e6e6f7420657863656564206d617820627579206c696d60008201527f6974000000000000000000000000000000000000000000000000000000000000602082015250565b60006142e7602283612fac565b91506142f28261428b565b604082019050919050565b60006020820190508181036000830152614316816142da565b9050919050565b7f4d617857616c6c65743a2043616e6e6f7420657863656564206d61782077616c60008201527f6c6574206c696d69740000000000000000000000000000000000000000000000602082015250565b6000614379602983612fac565b91506143848261431d565b604082019050919050565b600060208201905081810360008301526143a88161436c565b905091905056fea2646970667358221220a0393d31ae84a27b39641ee25d5008552e56b61f7849e9e93bf760357c9ac37864736f6c634300081b0033",
  "linkReferences": {},
  "deployedLinkReferences": {}
}