{
    "_format": "hh-sol-artifact-1",
    "contractName": "TrumpSweeperBank",
    "sourceName": "contracts/TrumpSweeperBank.sol",
    "abi": [
        {
            "inputs": [],
            "stateMutability": "nonpayable",
            "type": "constructor"
        },
        {
            "anonymous": false,
            "inputs": [
                {
                    "indexed": true,
                    "internalType": "address",
                    "name": "user",
                    "type": "address"
                },
                {
                    "indexed": false,
                    "internalType": "uint256",
                    "name": "amount",
                    "type": "uint256"
                }
            ],
            "name": "Deposit",
            "type": "event"
        },
        {
            "anonymous": false,
            "inputs": [
                {
                    "indexed": true,
                    "internalType": "address",
                    "name": "user",
                    "type": "address"
                },
                {
                    "indexed": false,
                    "internalType": "uint256",
                    "name": "amount",
                    "type": "uint256"
                }
            ],
            "name": "Withdrawal",
            "type": "event"
        },
        {
            "inputs": [
                {
                    "internalType": "address",
                    "name": "",
                    "type": "address"
                }
            ],
            "name": "balances",
            "outputs": [
                {
                    "internalType": "uint256",
                    "name": "",
                    "type": "uint256"
                }
            ],
            "stateMutability": "view",
            "type": "function"
        },
        {
            "inputs": [],
            "name": "deposit",
            "outputs": [],
            "stateMutability": "payable",
            "type": "function"
        },
        {
            "inputs": [
                {
                    "internalType": "address",
                    "name": "user",
                    "type": "address"
                }
            ],
            "name": "getBalance",
            "outputs": [
                {
                    "internalType": "uint256",
                    "name": "",
                    "type": "uint256"
                }
            ],
            "stateMutability": "view",
            "type": "function"
        },
        {
            "inputs": [],
            "name": "owner",
            "outputs": [
                {
                    "internalType": "address",
                    "name": "",
                    "type": "address"
                }
            ],
            "stateMutability": "view",
            "type": "function"
        },
        {
            "inputs": [
                {
                    "internalType": "uint256",
                    "name": "amount",
                    "type": "uint256"
                }
            ],
            "name": "ownerWithdraw",
            "outputs": [],
            "stateMutability": "nonpayable",
            "type": "function"
        },
        {
            "inputs": [
                {
                    "internalType": "address",
                    "name": "user",
                    "type": "address"
                },
                {
                    "internalType": "uint256",
                    "name": "amount",
                    "type": "uint256"
                }
            ],
            "name": "withdraw",
            "outputs": [],
            "stateMutability": "nonpayable",
            "type": "function"
        }
    ],
    "bytecode": "0x608060405234801561001057600080fd5b50336000806101000a81548173ffffffffffffffffffffffffffffffffffffffff021916908373ffffffffffffffffffffffffffffffffffffffff160217905550610a1f806100606000396000f3fe6080604052600436106100555760003560e01c806327e235e31461005a57806333f707d1146100975780638da5cb5b146100c0578063d0e30db0146100eb578063f3fef3a3146100f5578063f8b2cb4f1461011e575b600080fd5b34801561006657600080fd5b50610081600480360381019061007c919061062d565b61015b565b60405161008e919061089a565b60405180910390f35b3480156100a357600080fd5b506100be60048036038101906100b99190610692565b610173565b005b3480156100cc57600080fd5b506100d56102ae565b6040516100e291906107ff565b60405180910390f35b6100f36102d2565b005b34801561010157600080fd5b5061011c60048036038101906101179190610656565b6103bb565b005b34801561012a57600080fd5b506101456004803603810190610140919061062d565b6105ba565b604051610152919061089a565b60405180910390f35b60016020528060005260406000206000915090505481565b60008054906101000a900473ffffffffffffffffffffffffffffffffffffffff1673ffffffffffffffffffffffffffffffffffffffff163373ffffffffffffffffffffffffffffffffffffffff1614610201576040517f08c379a00000000000000000000000000000000000000000000000000000000081526004016101f89061081a565b60405180910390fd5b47811115610244576040517f08c379a000000000000000000000000000000000000000000000000000000000815260040161023b9061087a565b60405180910390fd5b60008054906101000a900473ffffffffffffffffffffffffffffffffffffffff1673ffffffffffffffffffffffffffffffffffffffff166108fc829081150290604051600060405180830381858888f193505050501580156102aa573d6000803e3d6000fd5b5050565b60008054906101000a900473ffffffffffffffffffffffffffffffffffffffff1681565b60003411610315576040517f08c379a000000000000000000000000000000000000000000000000000000000815260040161030c9061085a565b60405180910390fd5b34600160003373ffffffffffffffffffffffffffffffffffffffff1673ffffffffffffffffffffffffffffffffffffffff168152602001908152602001600020600082825461036491906108c6565b925050819055503373ffffffffffffffffffffffffffffffffffffffff167fe1fffcc4923d04b559f4d29a8bfc6cda04eb5b0d3c460751c2402c5c5cc9109c346040516103b1919061089a565b60405180910390a2565b60008054906101000a900473ffffffffffffffffffffffffffffffffffffffff1673ffffffffffffffffffffffffffffffffffffffff163373ffffffffffffffffffffffffffffffffffffffff1614610449576040517f08c379a00000000000000000000000000000000000000000000000000000000081526004016104409061081a565b60405180910390fd5b80600160008473ffffffffffffffffffffffffffffffffffffffff1673ffffffffffffffffffffffffffffffffffffffff1681526020019081526020016000205410156104cb576040517f08c379a00000000000000000000000000000000000000000000000000000000081526004016104c29061083a565b60405180910390fd5b80600160008473ffffffffffffffffffffffffffffffffffffffff1673ffffffffffffffffffffffffffffffffffffffff168152602001908152602001600020600082825461051a919061091c565b925050819055508173ffffffffffffffffffffffffffffffffffffffff166108fc829081150290604051600060405180830381858888f19350505050158015610567573d6000803e3d6000fd5b508173ffffffffffffffffffffffffffffffffffffffff167f7fcf532c15f0a6db0bd6d0e038bea71d30d808c7d98cb3bf7268a95bf5081b65826040516105ae919061089a565b60405180910390a25050565b6000600160008373ffffffffffffffffffffffffffffffffffffffff1673ffffffffffffffffffffffffffffffffffffffff168152602001908152602001600020549050919050565b600081359050610612816109bb565b92915050565b600081359050610627816109d2565b92915050565b60006020828403121561063f57600080fd5b600061064d84828501610603565b91505092915050565b6000806040838503121561066957600080fd5b600061067785828601610603565b925050602061068885828601610618565b9150509250929050565b6000602082840312156106a457600080fd5b60006106b284828501610618565b91505092915050565b6106c481610950565b82525050565b60006106d76026836108b5565b91507f4f6e6c7920746865206f776e65722063616e20706572666f726d20746869732060008301527f616374696f6e00000000000000000000000000000000000000000000000000006020830152604082019050919050565b600061073d6014836108b5565b91507f496e73756666696369656e742062616c616e63650000000000000000000000006000830152602082019050919050565b600061077d6018836108b5565b91507f4d7573742073656e642045544820746f206465706f73697400000000000000006000830152602082019050919050565b60006107bd601d836108b5565b91507f496e73756666696369656e7420636f6e74726163742062616c616e63650000006000830152602082019050919050565b6107f981610982565b82525050565b600060208201905061081460008301846106bb565b92915050565b60006020820190508181036000830152610833816106ca565b9050919050565b6000602082019050818103600083015261085381610730565b9050919050565b6000602082019050818103600083015261087381610770565b9050919050565b60006020820190508181036000830152610893816107b0565b9050919050565b60006020820190506108af60008301846107f0565b92915050565b600082825260208201905092915050565b60006108d182610982565b91506108dc83610982565b9250827fffffffffffffffffffffffffffffffffffffffffffffffffffffffffffffffff038211156109115761091061098c565b5b828201905092915050565b600061092782610982565b915061093283610982565b9250828210156109455761094461098c565b5b828203905092915050565b600061095b82610962565b9050919050565b600073ffffffffffffffffffffffffffffffffffffffff82169050919050565b6000819050919050565b7f4e487b7100000000000000000000000000000000000000000000000000000000600052601160045260246000fd5b6109c481610950565b81146109cf57600080fd5b50565b6109db81610982565b81146109e657600080fd5b5056fea26469706673582212205847f0c55ae62000dbbd5eaa9eaaa8f5bc210fa379ba08eb8c6408eb52d9305664736f6c63430008000033",
    "linkReferences": {},
    "deployedLinkReferences": {}
}